{
  "abi": [
    {
      "type": "constructor",
      "inputs": [
        {
          "name": "_poolManager",
          "type": "address",
          "internalType": "contract IPoolManager"
        }
      ],
      "stateMutability": "nonpayable"
    },
    {
      "type": "function",
      "name": "afterAddLiquidity",
      "inputs": [
        {
          "name": "sender",
          "type": "address",
          "internalType": "address"
        },
        {
          "name": "key",
          "type": "tuple",
          "internalType": "struct PoolKey",
          "components": [
            {
              "name": "currency0",
              "type": "address",
              "internalType": "Currency"
            },
            {
              "name": "currency1",
              "type": "address",
              "internalType": "Currency"
            },
            {
              "name": "fee",
              "type": "uint24",
              "internalType": "uint24"
            },
            {
              "name": "tickSpacing",
              "type": "int24",
              "internalType": "int24"
            },
            {
              "name": "hooks",
              "type": "address",
              "internalType": "contract IHooks"
            }
          ]
        },
        {
          "name": "params",
          "type": "tuple",
          "internalType": "struct ModifyLiquidityParams",
          "components": [
            {
              "name": "tickLower",
              "type": "int24",
              "internalType": "int24"
            },
            {
              "name": "tickUpper",
              "type": "int24",
              "internalType": "int24"
            },
            {
              "name": "liquidityDelta",
              "type": "int256",
              "internalType": "int256"
            },
            {
              "name": "salt",
              "type": "bytes32",
              "internalType": "bytes32"
            }
          ]
        },
        {
          "name": "delta",
          "type": "int256",
          "internalType": "BalanceDelta"
        },
        {
          "name": "feesAccrued",
          "type": "int256",
          "internalType": "BalanceDelta"
        },
        {
          "name": "hookData",
          "type": "bytes",
          "internalType": "bytes"
        }
      ],
      "outputs": [
        {
          "name": "",
          "type": "bytes4",
          "internalType": "bytes4"
        },
        {
          "name": "",
          "type": "int256",
          "internalType": "BalanceDelta"
        }
      ],
      "stateMutability": "nonpayable"
    },
    {
      "type": "function",
      "name": "afterDonate",
      "inputs": [
        {
          "name": "sender",
          "type": "address",
          "internalType": "address"
        },
        {
          "name": "key",
          "type": "tuple",
          "internalType": "struct PoolKey",
          "components": [
            {
              "name": "currency0",
              "type": "address",
              "internalType": "Currency"
            },
            {
              "name": "currency1",
              "type": "address",
              "internalType": "Currency"
            },
            {
              "name": "fee",
              "type": "uint24",
              "internalType": "uint24"
            },
            {
              "name": "tickSpacing",
              "type": "int24",
              "internalType": "int24"
            },
            {
              "name": "hooks",
              "type": "address",
              "internalType": "contract IHooks"
            }
          ]
        },
        {
          "name": "amount0",
          "type": "uint256",
          "internalType": "uint256"
        },
        {
          "name": "amount1",
          "type": "uint256",
          "internalType": "uint256"
        },
        {
          "name": "hookData",
          "type": "bytes",
          "internalType": "bytes"
        }
      ],
      "outputs": [
        {
          "name": "",
          "type": "bytes4",
          "internalType": "bytes4"
        }
      ],
      "stateMutability": "nonpayable"
    },
    {
      "type": "function",
      "name": "afterInitialize",
      "inputs": [
        {
          "name": "sender",
          "type": "address",
          "internalType": "address"
        },
        {
          "name": "key",
          "type": "tuple",
          "internalType": "struct PoolKey",
          "components": [
            {
              "name": "currency0",
              "type": "address",
              "internalType": "Currency"
            },
            {
              "name": "currency1",
              "type": "address",
              "internalType": "Currency"
            },
            {
              "name": "fee",
              "type": "uint24",
              "internalType": "uint24"
            },
            {
              "name": "tickSpacing",
              "type": "int24",
              "internalType": "int24"
            },
            {
              "name": "hooks",
              "type": "address",
              "internalType": "contract IHooks"
            }
          ]
        },
        {
          "name": "sqrtPriceX96",
          "type": "uint160",
          "internalType": "uint160"
        },
        {
          "name": "tick",
          "type": "int24",
          "internalType": "int24"
        }
      ],
      "outputs": [
        {
          "name": "",
          "type": "bytes4",
          "internalType": "bytes4"
        }
      ],
      "stateMutability": "nonpayable"
    },
    {
      "type": "function",
      "name": "afterRemoveLiquidity",
      "inputs": [
        {
          "name": "sender",
          "type": "address",
          "internalType": "address"
        },
        {
          "name": "key",
          "type": "tuple",
          "internalType": "struct PoolKey",
          "components": [
            {
              "name": "currency0",
              "type": "address",
              "internalType": "Currency"
            },
            {
              "name": "currency1",
              "type": "address",
              "internalType": "Currency"
            },
            {
              "name": "fee",
              "type": "uint24",
              "internalType": "uint24"
            },
            {
              "name": "tickSpacing",
              "type": "int24",
              "internalType": "int24"
            },
            {
              "name": "hooks",
              "type": "address",
              "internalType": "contract IHooks"
            }
          ]
        },
        {
          "name": "params",
          "type": "tuple",
          "internalType": "struct ModifyLiquidityParams",
          "components": [
            {
              "name": "tickLower",
              "type": "int24",
              "internalType": "int24"
            },
            {
              "name": "tickUpper",
              "type": "int24",
              "internalType": "int24"
            },
            {
              "name": "liquidityDelta",
              "type": "int256",
              "internalType": "int256"
            },
            {
              "name": "salt",
              "type": "bytes32",
              "internalType": "bytes32"
            }
          ]
        },
        {
          "name": "delta",
          "type": "int256",
          "internalType": "BalanceDelta"
        },
        {
          "name": "feesAccrued",
          "type": "int256",
          "internalType": "BalanceDelta"
        },
        {
          "name": "hookData",
          "type": "bytes",
          "internalType": "bytes"
        }
      ],
      "outputs": [
        {
          "name": "",
          "type": "bytes4",
          "internalType": "bytes4"
        },
        {
          "name": "",
          "type": "int256",
          "internalType": "BalanceDelta"
        }
      ],
      "stateMutability": "nonpayable"
    },
    {
      "type": "function",
      "name": "afterSwap",
      "inputs": [
        {
          "name": "sender",
          "type": "address",
          "internalType": "address"
        },
        {
          "name": "key",
          "type": "tuple",
          "internalType": "struct PoolKey",
          "components": [
            {
              "name": "currency0",
              "type": "address",
              "internalType": "Currency"
            },
            {
              "name": "currency1",
              "type": "address",
              "internalType": "Currency"
            },
            {
              "name": "fee",
              "type": "uint24",
              "internalType": "uint24"
            },
            {
              "name": "tickSpacing",
              "type": "int24",
              "internalType": "int24"
            },
            {
              "name": "hooks",
              "type": "address",
              "internalType": "contract IHooks"
            }
          ]
        },
        {
          "name": "params",
          "type": "tuple",
          "internalType": "struct SwapParams",
          "components": [
            {
              "name": "zeroForOne",
              "type": "bool",
              "internalType": "bool"
            },
            {
              "name": "amountSpecified",
              "type": "int256",
              "internalType": "int256"
            },
            {
              "name": "sqrtPriceLimitX96",
              "type": "uint160",
              "internalType": "uint160"
            }
          ]
        },
        {
          "name": "delta",
          "type": "int256",
          "internalType": "BalanceDelta"
        },
        {
          "name": "hookData",
          "type": "bytes",
          "internalType": "bytes"
        }
      ],
      "outputs": [
        {
          "name": "",
          "type": "bytes4",
          "internalType": "bytes4"
        },
        {
          "name": "",
          "type": "int128",
          "internalType": "int128"
        }
      ],
      "stateMutability": "nonpayable"
    },
    {
      "type": "function",
      "name": "beforeAddLiquidity",
      "inputs": [
        {
          "name": "sender",
          "type": "address",
          "internalType": "address"
        },
        {
          "name": "key",
          "type": "tuple",
          "internalType": "struct PoolKey",
          "components": [
            {
              "name": "currency0",
              "type": "address",
              "internalType": "Currency"
            },
            {
              "name": "currency1",
              "type": "address",
              "internalType": "Currency"
            },
            {
              "name": "fee",
              "type": "uint24",
              "internalType": "uint24"
            },
            {
              "name": "tickSpacing",
              "type": "int24",
              "internalType": "int24"
            },
            {
              "name": "hooks",
              "type": "address",
              "internalType": "contract IHooks"
            }
          ]
        },
        {
          "name": "params",
          "type": "tuple",
          "internalType": "struct ModifyLiquidityParams",
          "components": [
            {
              "name": "tickLower",
              "type": "int24",
              "internalType": "int24"
            },
            {
              "name": "tickUpper",
              "type": "int24",
              "internalType": "int24"
            },
            {
              "name": "liquidityDelta",
              "type": "int256",
              "internalType": "int256"
            },
            {
              "name": "salt",
              "type": "bytes32",
              "internalType": "bytes32"
            }
          ]
        },
        {
          "name": "hookData",
          "type": "bytes",
          "internalType": "bytes"
        }
      ],
      "outputs": [
        {
          "name": "",
          "type": "bytes4",
          "internalType": "bytes4"
        }
      ],
      "stateMutability": "nonpayable"
    },
    {
      "type": "function",
      "name": "beforeDonate",
      "inputs": [
        {
          "name": "sender",
          "type": "address",
          "internalType": "address"
        },
        {
          "name": "key",
          "type": "tuple",
          "internalType": "struct PoolKey",
          "components": [
            {
              "name": "currency0",
              "type": "address",
              "internalType": "Currency"
            },
            {
              "name": "currency1",
              "type": "address",
              "internalType": "Currency"
            },
            {
              "name": "fee",
              "type": "uint24",
              "internalType": "uint24"
            },
            {
              "name": "tickSpacing",
              "type": "int24",
              "internalType": "int24"
            },
            {
              "name": "hooks",
              "type": "address",
              "internalType": "contract IHooks"
            }
          ]
        },
        {
          "name": "amount0",
          "type": "uint256",
          "internalType": "uint256"
        },
        {
          "name": "amount1",
          "type": "uint256",
          "internalType": "uint256"
        },
        {
          "name": "hookData",
          "type": "bytes",
          "internalType": "bytes"
        }
      ],
      "outputs": [
        {
          "name": "",
          "type": "bytes4",
          "internalType": "bytes4"
        }
      ],
      "stateMutability": "nonpayable"
    },
    {
      "type": "function",
      "name": "beforeInitialize",
      "inputs": [
        {
          "name": "sender",
          "type": "address",
          "internalType": "address"
        },
        {
          "name": "key",
          "type": "tuple",
          "internalType": "struct PoolKey",
          "components": [
            {
              "name": "currency0",
              "type": "address",
              "internalType": "Currency"
            },
            {
              "name": "currency1",
              "type": "address",
              "internalType": "Currency"
            },
            {
              "name": "fee",
              "type": "uint24",
              "internalType": "uint24"
            },
            {
              "name": "tickSpacing",
              "type": "int24",
              "internalType": "int24"
            },
            {
              "name": "hooks",
              "type": "address",
              "internalType": "contract IHooks"
            }
          ]
        },
        {
          "name": "sqrtPriceX96",
          "type": "uint160",
          "internalType": "uint160"
        }
      ],
      "outputs": [
        {
          "name": "",
          "type": "bytes4",
          "internalType": "bytes4"
        }
      ],
      "stateMutability": "nonpayable"
    },
    {
      "type": "function",
      "name": "beforeRemoveLiquidity",
      "inputs": [
        {
          "name": "sender",
          "type": "address",
          "internalType": "address"
        },
        {
          "name": "key",
          "type": "tuple",
          "internalType": "struct PoolKey",
          "components": [
            {
              "name": "currency0",
              "type": "address",
              "internalType": "Currency"
            },
            {
              "name": "currency1",
              "type": "address",
              "internalType": "Currency"
            },
            {
              "name": "fee",
              "type": "uint24",
              "internalType": "uint24"
            },
            {
              "name": "tickSpacing",
              "type": "int24",
              "internalType": "int24"
            },
            {
              "name": "hooks",
              "type": "address",
              "internalType": "contract IHooks"
            }
          ]
        },
        {
          "name": "params",
          "type": "tuple",
          "internalType": "struct ModifyLiquidityParams",
          "components": [
            {
              "name": "tickLower",
              "type": "int24",
              "internalType": "int24"
            },
            {
              "name": "tickUpper",
              "type": "int24",
              "internalType": "int24"
            },
            {
              "name": "liquidityDelta",
              "type": "int256",
              "internalType": "int256"
            },
            {
              "name": "salt",
              "type": "bytes32",
              "internalType": "bytes32"
            }
          ]
        },
        {
          "name": "hookData",
          "type": "bytes",
          "internalType": "bytes"
        }
      ],
      "outputs": [
        {
          "name": "",
          "type": "bytes4",
          "internalType": "bytes4"
        }
      ],
      "stateMutability": "nonpayable"
    },
    {
      "type": "function",
      "name": "beforeSwap",
      "inputs": [
        {
          "name": "sender",
          "type": "address",
          "internalType": "address"
        },
        {
          "name": "key",
          "type": "tuple",
          "internalType": "struct PoolKey",
          "components": [
            {
              "name": "currency0",
              "type": "address",
              "internalType": "Currency"
            },
            {
              "name": "currency1",
              "type": "address",
              "internalType": "Currency"
            },
            {
              "name": "fee",
              "type": "uint24",
              "internalType": "uint24"
            },
            {
              "name": "tickSpacing",
              "type": "int24",
              "internalType": "int24"
            },
            {
              "name": "hooks",
              "type": "address",
              "internalType": "contract IHooks"
            }
          ]
        },
        {
          "name": "params",
          "type": "tuple",
          "internalType": "struct SwapParams",
          "components": [
            {
              "name": "zeroForOne",
              "type": "bool",
              "internalType": "bool"
            },
            {
              "name": "amountSpecified",
              "type": "int256",
              "internalType": "int256"
            },
            {
              "name": "sqrtPriceLimitX96",
              "type": "uint160",
              "internalType": "uint160"
            }
          ]
        },
        {
          "name": "hookData",
          "type": "bytes",
          "internalType": "bytes"
        }
      ],
      "outputs": [
        {
          "name": "",
          "type": "bytes4",
          "internalType": "bytes4"
        },
        {
          "name": "",
          "type": "int256",
          "internalType": "BeforeSwapDelta"
        },
        {
          "name": "",
          "type": "uint24",
          "internalType": "uint24"
        }
      ],
      "stateMutability": "nonpayable"
    },
    {
      "type": "function",
      "name": "editOrder",
      "inputs": [
        {
          "name": "key",
          "type": "tuple",
          "internalType": "struct PoolKey",
          "components": [
            {
              "name": "currency0",
              "type": "address",
              "internalType": "Currency"
            },
            {
              "name": "currency1",
              "type": "address",
              "internalType": "Currency"
            },
            {
              "name": "fee",
              "type": "uint24",
              "internalType": "uint24"
            },
            {
              "name": "tickSpacing",
              "type": "int24",
              "internalType": "int24"
            },
            {
              "name": "hooks",
              "type": "address",
              "internalType": "contract IHooks"
            }
          ]
        },
        {
          "name": "orderId",
          "type": "uint256",
          "internalType": "uint256"
        },
        {
          "name": "inNewTriggerTick",
          "type": "tuple",
          "internalType": "struct InEuint32",
          "components": [
            {
              "name": "ctHash",
              "type": "uint256",
              "internalType": "uint256"
            },
            {
              "name": "securityZone",
              "type": "uint8",
              "internalType": "uint8"
            },
            {
              "name": "utype",
              "type": "uint8",
              "internalType": "uint8"
            },
            {
              "name": "signature",
              "type": "bytes",
              "internalType": "bytes"
            }
          ]
        },
        {
          "name": "amountDelta",
          "type": "int256",
          "internalType": "int256"
        }
      ],
      "outputs": [],
      "stateMutability": "nonpayable"
    },
    {
      "type": "function",
      "name": "flushOrder",
      "inputs": [
        {
          "name": "key",
          "type": "tuple",
          "internalType": "struct PoolKey",
          "components": [
            {
              "name": "currency0",
              "type": "address",
              "internalType": "Currency"
            },
            {
              "name": "currency1",
              "type": "address",
              "internalType": "Currency"
            },
            {
              "name": "fee",
              "type": "uint24",
              "internalType": "uint24"
            },
            {
              "name": "tickSpacing",
              "type": "int24",
              "internalType": "int24"
            },
            {
              "name": "hooks",
              "type": "address",
              "internalType": "contract IHooks"
            }
          ]
        }
      ],
      "outputs": [],
      "stateMutability": "nonpayable"
    },
    {
      "type": "function",
      "name": "getHookPermissions",
      "inputs": [],
      "outputs": [
        {
          "name": "",
          "type": "tuple",
          "internalType": "struct Hooks.Permissions",
          "components": [
            {
              "name": "beforeInitialize",
              "type": "bool",
              "internalType": "bool"
            },
            {
              "name": "afterInitialize",
              "type": "bool",
              "internalType": "bool"
            },
            {
              "name": "beforeAddLiquidity",
              "type": "bool",
              "internalType": "bool"
            },
            {
              "name": "afterAddLiquidity",
              "type": "bool",
              "internalType": "bool"
            },
            {
              "name": "beforeRemoveLiquidity",
              "type": "bool",
              "internalType": "bool"
            },
            {
              "name": "afterRemoveLiquidity",
              "type": "bool",
              "internalType": "bool"
            },
            {
              "name": "beforeSwap",
              "type": "bool",
              "internalType": "bool"
            },
            {
              "name": "afterSwap",
              "type": "bool",
              "internalType": "bool"
            },
            {
              "name": "beforeDonate",
              "type": "bool",
              "internalType": "bool"
            },
            {
              "name": "afterDonate",
              "type": "bool",
              "internalType": "bool"
            },
            {
              "name": "beforeSwapReturnDelta",
              "type": "bool",
              "internalType": "bool"
            },
            {
              "name": "afterSwapReturnDelta",
              "type": "bool",
              "internalType": "bool"
            },
            {
              "name": "afterAddLiquidityReturnDelta",
              "type": "bool",
              "internalType": "bool"
            },
            {
              "name": "afterRemoveLiquidityReturnDelta",
              "type": "bool",
              "internalType": "bool"
            }
          ]
        }
      ],
      "stateMutability": "pure"
    },
    {
      "type": "function",
      "name": "getQueueLength",
      "inputs": [
        {
          "name": "key",
          "type": "tuple",
          "internalType": "struct PoolKey",
          "components": [
            {
              "name": "currency0",
              "type": "address",
              "internalType": "Currency"
            },
            {
              "name": "currency1",
              "type": "address",
              "internalType": "Currency"
            },
            {
              "name": "fee",
              "type": "uint24",
              "internalType": "uint24"
            },
            {
              "name": "tickSpacing",
              "type": "int24",
              "internalType": "int24"
            },
            {
              "name": "hooks",
              "type": "address",
              "internalType": "contract IHooks"
            }
          ]
        }
      ],
      "outputs": [
        {
          "name": "",
          "type": "uint256",
          "internalType": "uint256"
        }
      ],
      "stateMutability": "view"
    },
    {
      "type": "function",
      "name": "lastTicks",
      "inputs": [
        {
          "name": "",
          "type": "bytes32",
          "internalType": "PoolId"
        }
      ],
      "outputs": [
        {
          "name": "",
          "type": "int24",
          "internalType": "int24"
        }
      ],
      "stateMutability": "view"
    },
    {
      "type": "function",
      "name": "nextOrderId",
      "inputs": [],
      "outputs": [
        {
          "name": "",
          "type": "uint256",
          "internalType": "uint256"
        }
      ],
      "stateMutability": "view"
    },
    {
      "type": "function",
      "name": "orders",
      "inputs": [
        {
          "name": "",
          "type": "uint256",
          "internalType": "uint256"
        }
      ],
      "outputs": [
        {
          "name": "trader",
          "type": "address",
          "internalType": "address"
        },
        {
          "name": "zeroForOne",
          "type": "bool",
          "internalType": "bool"
        },
        {
          "name": "status",
          "type": "uint8",
          "internalType": "enum Susanoo.OrderStatus"
        },
        {
          "name": "orderType",
          "type": "uint256",
          "internalType": "ebool"
        },
        {
          "name": "triggerTick",
          "type": "uint256",
          "internalType": "euint32"
        },
        {
          "name": "amount",
          "type": "uint256",
          "internalType": "uint256"
        },
        {
          "name": "keyId",
          "type": "bytes32",
          "internalType": "PoolId"
        }
      ],
      "stateMutability": "view"
    },
    {
      "type": "function",
      "name": "placeOrder",
      "inputs": [
        {
          "name": "key",
          "type": "tuple",
          "internalType": "struct PoolKey",
          "components": [
            {
              "name": "currency0",
              "type": "address",
              "internalType": "Currency"
            },
            {
              "name": "currency1",
              "type": "address",
              "internalType": "Currency"
            },
            {
              "name": "fee",
              "type": "uint24",
              "internalType": "uint24"
            },
            {
              "name": "tickSpacing",
              "type": "int24",
              "internalType": "int24"
            },
            {
              "name": "hooks",
              "type": "address",
              "internalType": "contract IHooks"
            }
          ]
        },
        {
          "name": "zeroForOne",
          "type": "bool",
          "internalType": "bool"
        },
        {
          "name": "inTriggerTick",
          "type": "tuple",
          "internalType": "struct InEuint32",
          "components": [
            {
              "name": "ctHash",
              "type": "uint256",
              "internalType": "uint256"
            },
            {
              "name": "securityZone",
              "type": "uint8",
              "internalType": "uint8"
            },
            {
              "name": "utype",
              "type": "uint8",
              "internalType": "uint8"
            },
            {
              "name": "signature",
              "type": "bytes",
              "internalType": "bytes"
            }
          ]
        },
        {
          "name": "inOrderType",
          "type": "tuple",
          "internalType": "struct InEbool",
          "components": [
            {
              "name": "ctHash",
              "type": "uint256",
              "internalType": "uint256"
            },
            {
              "name": "securityZone",
              "type": "uint8",
              "internalType": "uint8"
            },
            {
              "name": "utype",
              "type": "uint8",
              "internalType": "uint8"
            },
            {
              "name": "signature",
              "type": "bytes",
              "internalType": "bytes"
            }
          ]
        },
        {
          "name": "amount",
          "type": "uint256",
          "internalType": "uint256"
        }
      ],
      "outputs": [
        {
          "name": "",
          "type": "uint256",
          "internalType": "uint256"
        }
      ],
      "stateMutability": "nonpayable"
    },
    {
      "type": "function",
      "name": "poolManager",
      "inputs": [],
      "outputs": [
        {
          "name": "",
          "type": "address",
          "internalType": "contract IPoolManager"
        }
      ],
      "stateMutability": "view"
    },
    {
      "type": "function",
      "name": "unlockCallback",
      "inputs": [
        {
          "name": "data",
          "type": "bytes",
          "internalType": "bytes"
        }
      ],
      "outputs": [
        {
          "name": "",
          "type": "bytes",
          "internalType": "bytes"
        }
      ],
      "stateMutability": "nonpayable"
    },
    {
      "type": "event",
      "name": "DecryptionRequested",
      "inputs": [
        {
          "name": "orderId",
          "type": "uint256",
          "indexed": false,
          "internalType": "uint256"
        },
        {
          "name": "conditionHandle",
          "type": "uint256",
          "indexed": false,
          "internalType": "euint128"
        }
      ],
      "anonymous": false
    },
    {
      "type": "event",
      "name": "OrderCancelled",
      "inputs": [
        {
          "name": "orderId",
          "type": "uint256",
          "indexed": false,
          "internalType": "uint256"
        },
        {
          "name": "trader",
          "type": "address",
          "indexed": true,
          "internalType": "address"
        },
        {
          "name": "keyId",
          "type": "bytes32",
          "indexed": true,
          "internalType": "PoolId"
        }
      ],
      "anonymous": false
    },
    {
      "type": "event",
      "name": "OrderEdited",
      "inputs": [
        {
          "name": "orderId",
          "type": "uint256",
          "indexed": false,
          "internalType": "uint256"
        },
        {
          "name": "trader",
          "type": "address",
          "indexed": true,
          "internalType": "address"
        },
        {
          "name": "newTriggerTick",
          "type": "uint256",
          "indexed": false,
          "internalType": "euint32"
        },
        {
          "name": "newAmount",
          "type": "uint256",
          "indexed": false,
          "internalType": "uint256"
        },
        {
          "name": "keyId",
          "type": "bytes32",
          "indexed": true,
          "internalType": "PoolId"
        }
      ],
      "anonymous": false
    },
    {
      "type": "event",
      "name": "OrderExecuted",
      "inputs": [
        {
          "name": "orderId",
          "type": "uint256",
          "indexed": false,
          "internalType": "uint256"
        },
        {
          "name": "trader",
          "type": "address",
          "indexed": true,
          "internalType": "address"
        },
        {
          "name": "executedTick",
          "type": "int24",
          "indexed": false,
          "internalType": "int24"
        },
        {
          "name": "keyId",
          "type": "bytes32",
          "indexed": true,
          "internalType": "PoolId"
        }
      ],
      "anonymous": false
    },
    {
      "type": "event",
      "name": "OrderPlaced",
      "inputs": [
        {
          "name": "orderId",
          "type": "uint256",
          "indexed": false,
          "internalType": "uint256"
        },
        {
          "name": "trader",
          "type": "address",
          "indexed": true,
          "internalType": "address"
        },
        {
          "name": "triggerTick",
          "type": "uint256",
          "indexed": false,
          "internalType": "euint32"
        },
        {
          "name": "zeroForOne",
          "type": "bool",
          "indexed": false,
          "internalType": "bool"
        },
        {
          "name": "orderType",
          "type": "uint256",
          "indexed": false,
          "internalType": "ebool"
        },
        {
          "name": "amount",
          "type": "uint256",
          "indexed": false,
          "internalType": "uint256"
        },
        {
          "name": "keyId",
          "type": "bytes32",
          "indexed": true,
          "internalType": "PoolId"
        }
      ],
      "anonymous": false
    },
    {
      "type": "error",
      "name": "HookNotImplemented",
      "inputs": []
    },
    {
      "type": "error",
      "name": "InvalidEncryptedInput",
      "inputs": [
        {
          "name": "got",
          "type": "uint8",
          "internalType": "uint8"
        },
        {
          "name": "expected",
          "type": "uint8",
          "internalType": "uint8"
        }
      ]
    },
    {
      "type": "error",
      "name": "NotPoolManager",
      "inputs": []
    },
    {
      "type": "error",
      "name": "ReentrancyGuardReentrantCall",
      "inputs": []
    },
    {
      "type": "error",
      "name": "SecurityZoneOutOfBounds",
      "inputs": [
        {
          "name": "value",
          "type": "int32",
          "internalType": "int32"
        }
      ]
    }
  ],
  "bytecode": {
    "object": "0x60a060405260015f55348015610013575f80fd5b50604051613dc9380380613dc9833981016040819052610032916102ab565b6001600160a01b0381166080528061004930610050565b50506102d8565b6101438161013e604080516101c0810182525f80825260208201819052918101829052606081018290526080810182905260a0810182905260c0810182905260e08101829052610100810182905261012081018290526101408101829052610160810182905261018081018290526101a081019190915250604080516101c0810182525f808252600160208301819052928201819052606082018190526080820181905260a0820181905260c0820183905260e0820192909252610100810182905261012081018290526101408101829052610160810182905261018081018290526101a081019190915290565b610146565b50565b805115156120008316151514158061016a5750602081015115156110008316151514155b806101815750604081015115156108008316151514155b806101985750606081015115156104008316151514155b806101af5750608081015115156102008316151514155b806101c6575060a081015115156101008316151514155b806101dc575060c0810151151560808316151514155b806101f2575060e0810151151560408316151514155b806102095750610100810151151560208316151514155b806102205750610120810151151560108316151514155b806102375750610140810151151560088316151514155b8061024e5750610160810151151560048316151514155b806102655750610180810151151560028316151514155b8061027c57506101a0810151151560018316151514155b1561029257610292630732d7b560e51b83610296565b5050565b815f526001600160a01b03811660045260245ffd5b5f602082840312156102bb575f80fd5b81516001600160a01b03811681146102d1575f80fd5b9392505050565b608051613a706103595f395f818161043f015281816107b40152818161081701528181610880015281816108e9015281816109ef01528181610a6901528181610ad101528181610b3201528181610bf50152818161158c01528181611f58015281816122c50152818161232c0152818161236501526124260152613a705ff3fe608060405234801561000f575f80fd5b5060043610610163575f3560e01c8063a85c38ef116100c7578063dc4c90d31161007d578063e1b4af6911610063578063e1b4af691461031b578063e4cbfea51461048c578063f465bcae146104c1575f80fd5b8063dc4c90d31461043a578063dc98354e14610479575f80fd5b8063b6a8b0fa116100ad578063b6a8b0fa1461031b578063c4e833ce1461032e578063ccab9d8a14610425575f80fd5b8063a85c38ef14610278578063b47b2fb1146102e5575f80fd5b80636c2bbe7e1161011c57806374ecdb9f1161010257806374ecdb9f1461024557806391dd7346146102585780639f063efc146101ff575f80fd5b80636c2bbe7e146101ff5780636fe7e6eb14610232575f80fd5b8063259982e51161014c578063259982e51461018d5780632a58b330146101b9578063575e24b4146101c1575f80fd5b8063042c3a8e1461016757806321d0ee701461018d575b5f80fd5b61017a610175366004612c80565b6104d4565b6040519081526020015b60405180910390f35b6101a061019b366004612d7a565b6107a8565b6040516001600160e01b03199091168152602001610184565b61017a5f5481565b6101d46101cf366004612e01565b610809565b604080516001600160e01b03199094168452602084019290925262ffffff1690820152606001610184565b61021261020d366004612e5b565b610873565b604080516001600160e01b03199093168352602083019190915201610184565b6101a0610240366004612ef7565b6108dd565b61017a610253366004612f4e565b61093c565b61026b610266366004612f68565b6109e2565b6040516101849190612fc9565b6102d2610286366004612fdb565b600360208190525f9182526040909120805460018201546002830154938301546004909301546001600160a01b0383169460ff600160a01b8504811695600160a81b9095041693909187565b6040516101849796959493929190613006565b6102f86102f3366004613057565b610a5c565b604080516001600160e01b03199093168352600f9190910b602083015201610184565b6101a06103293660046130d8565b610ac5565b610418604080516101c0810182525f80825260208201819052918101829052606081018290526080810182905260a0810182905260c0810182905260e08101829052610100810182905261012081018290526101408101829052610160810182905261018081018290526101a081019190915250604080516101c0810182525f808252600160208301819052928201819052606082018190526080820181905260a0820181905260c0820183905260e0820192909252610100810182905261012081018290526101408101829052610160810182905261018081018290526101a081019190915290565b6040516101849190613132565b610438610433366004612f4e565b610b28565b005b6104617f000000000000000000000000000000000000000000000000000000000000000081565b6040516001600160a01b039091168152602001610184565b6101a061048736600461324c565b610be9565b6104ae61049a366004612fdb565b60046020525f908152604090205460020b81565b60405160029190910b8152602001610184565b6104386104cf366004613293565b610c46565b5f6104de86610b28565b5f8054906104fb6104f4368a90038a018a613302565b60a0902090565b90505f610507876110ad565b905061051281611142565b61051b816111ac565b5f610525876111ea565b905061053081611142565b610539816111ac565b6040805160e0810182523381528a151560208201525f91810182815260208082018590526040808301879052606083018b905260809092018790525f8881526003825282902083518154928501511515600160a01b027fffffffffffffffffffffff0000000000000000000000000000000000000000009093166001600160a01b0390911617919091178082559183015192935083929091829060ff60a81b1916600160a81b8360028111156105f1576105f1612ff2565b0217905550606082015160018201556080820151600282015560a0820151600382015560c0909101516004909101555f848152600560205260409020610637908661127a565b5060408051868152602081018590528b15158183015260608101849052608081018990529051859133917fc005b592ffbb5065388404498a17c4f24b5f3fade184a6495c61c0fd4e42fc9c9181900360a00190a35f8a6106a6576106a160408d0160208e01613396565b6106b3565b6106b360208d018d613396565b90506001600160a01b0381166107105760405162461bcd60e51b815260206004820152601f60248201527f4f6e6c7920455243323020746f6b656e732061726520737570706f727465640060448201526064015b60405180910390fd5b6040516323b872dd60e01b8152336004820152306024820152604481018990526001600160a01b038216906323b872dd906064016020604051808303815f875af1158015610760573d5f803e3d5ffd5b505050506040513d601f19601f8201168201806040525081019061078491906133b1565b505f80549080610793836133e0565b90915550959c9b505050505050505050505050565b5f336001600160a01b037f000000000000000000000000000000000000000000000000000000000000000016146107f25760405163570c108560e11b815260040160405180910390fd5b6107ff8686868686611285565b9695505050505050565b5f8080336001600160a01b037f000000000000000000000000000000000000000000000000000000000000000016146108555760405163570c108560e11b815260040160405180910390fd5b610862888888888861129f565b925092509250955095509592505050565b5f80336001600160a01b037f000000000000000000000000000000000000000000000000000000000000000016146108be5760405163570c108560e11b815260040160405180910390fd5b6108cd898989898989896112d1565b9150915097509795505050505050565b5f336001600160a01b037f000000000000000000000000000000000000000000000000000000000000000016146109275760405163570c108560e11b815260040160405180910390fd5b610933858585856112ec565b95945050505050565b5f806006816109536104f436879003870187613302565b815260208101919091526040015f20546001600160a01b0316905080156109d957806001600160a01b0316631f7b6d326040518163ffffffff1660e01b8152600401602060405180830381865afa1580156109b0573d5f803e3d5ffd5b505050506040513d601f19601f820116820180604052508101906109d491906133f8565b6109db565b5f5b9392505050565b6060336001600160a01b037f00000000000000000000000000000000000000000000000000000000000000001614610a2d5760405163570c108560e11b815260040160405180910390fd5b5f610a3a83850185613302565b9050610a4581611343565b505060408051602081019091525f81525b92915050565b5f80336001600160a01b037f00000000000000000000000000000000000000000000000000000000000000001614610aa75760405163570c108560e11b815260040160405180910390fd5b610ab5888888888888611552565b915091505b965096945050505050565b5f336001600160a01b037f00000000000000000000000000000000000000000000000000000000000000001614610b0f5760405163570c108560e11b815260040160405180910390fd5b610b1d878787878787611285565b979650505050505050565b610b30611645565b7f00000000000000000000000000000000000000000000000000000000000000006001600160a01b03166348c8949182604051602001610b70919061340f565b6040516020818303038152906040526040518263ffffffff1660e01b8152600401610b9b9190612fc9565b5f604051808303815f875af1158015610bb6573d5f803e3d5ffd5b505050506040513d5f823e601f3d908101601f19168201604052610bdd9190810190613493565b50610be661167c565b50565b5f336001600160a01b037f00000000000000000000000000000000000000000000000000000000000000001614610c335760405163570c108560e11b815260040160405180910390fd5b610c3e848484611285565b949350505050565b5f838152600360205260409020610c656104f436879003870187613302565b600482015414610ca95760405162461bcd60e51b815260206004820152600f60248201526e496e76616c696420506f6f6c4b657960881b6044820152606401610707565b80546001600160a01b03163314610d025760405162461bcd60e51b815260206004820152600e60248201527f4e6f7420796f7572206f726465720000000000000000000000000000000000006044820152606401610707565b5f8154600160a81b900460ff166002811115610d2057610d20612ff2565b14610d605760405162461bcd60e51b815260206004820152601060248201526f4f72646572206e6f742061637469766560801b6044820152606401610707565b600381015481545f90600160a01b900460ff16610d8c57610d876040880160208901613396565b610d99565b610d996020880188613396565b9050610da4856110ad565b60028401819055610db490611142565b610dc183600201546111ac565b5f841315610eb557835f610dd58285613508565b600386018190556040516323b872dd60e01b8152336004820152306024820152604481018490529091506001600160a01b038416906323b872dd906064016020604051808303815f875af1158015610e2f573d5f803e3d5ffd5b505050506040513d601f19601f82011682018060405250810190610e5391906133b1565b50610e666104f4368b90038b018b613302565b6002860154604080518b81526020810192909252810183905233907f97d1a4bd5b60cbfbac90bdbc580ef2c04b928f53308fdeced12742b466aa27619060600160405180910390a350506110a4565b5f841215611049575f610ec78561351b565b905082811115610f195760405162461bcd60e51b815260206004820152601f60248201527f446563726561736520657863656564732063757272656e7420616d6f756e74006044820152606401610707565b5f610f248285613535565b6003860181905560405163a9059cbb60e01b8152336004820152602481018490529091506001600160a01b0384169063a9059cbb906044016020604051808303815f875af1158015610f78573d5f803e3d5ffd5b505050506040513d601f19601f82011682018060405250810190610f9c91906133b1565b50805f0361103057845460ff60a81b1916750200000000000000000000000000000000000000000017855560048501545f908152600560205260409020610fe390896116a6565b50610ff66104f4368b90038b018b613302565b60405189815233907fbaa1b666fb09d486348ba96ff638934ac693898c1a2bb383c02be7a63c5616ca9060200160405180910390a3611042565b610e666104f4368b90038b018b613302565b50506110a4565b61105b6104f436899003890189613302565b6002840154604080518981526020810192909252810184905233907f97d1a4bd5b60cbfbac90bdbc580ef2c04b928f53308fdeced12742b466aa27619060600160405180910390a35b50505050505050565b60408101515f9060049060ff1681146110ec5760408084015190516367cf307160e01b815260ff91821660048201529082166024820152604401610707565b60408051608080820183525f808352602080840182905283850191909152606092830183905283519182018452865182528087015160ff169082015260049281019290925280850151908201526109db906116b1565b604051631974142760e21b81526004810182905230602482015273ea30c4b8b44078bbf8a6ef5b9f1ec1626c7848d9906365d0509c906044015b5f604051808303815f87803b158015611193575f80fd5b505af11580156111a5573d5f803e3d5ffd5b5050505050565b604051631974142760e21b81526004810182905233602482015273ea30c4b8b44078bbf8a6ef5b9f1ec1626c7848d9906365d0509c9060440161117c565b60408101515f90819060ff16156112275760408084015190516367cf307160e01b815260ff91821660048201529082166024820152604401610707565b60408051608080820183525f8083526020808401829052838501829052606093840184905284519283018552875183528088015160ff16908301529281019290925280850151908201526109db906116b1565b5f6109db838361172c565b5f604051630a85dc2960e01b815260040160405180910390fd5b5f80806112b96112b436899003890189613302565b611343565b506315d7892d60e21b975f9750879650945050505050565b5f80604051630a85dc2960e01b815260040160405180910390fd5b5f6112f684611778565b508160045f61130d6104f436899003890189613302565b815260208101919091526040015f20805462ffffff191662ffffff9290921691909117905550636fe7e6eb60e01b949350505050565b5f60065f6113528460a0902090565b815260208101919091526040015f20546001600160a01b0316905080611376575050565b806001600160a01b031663681fe70c6040518163ffffffff1660e01b8152600401602060405180830381865afa1580156113b2573d5f803e3d5ffd5b505050506040513d601f19601f820116820180604052508101906113d691906133b1565b61154e575f816001600160a01b03166359e02dd76040518163ffffffff1660e01b8152600401602060405180830381865afa158015611417573d5f803e3d5ffd5b505050506040513d601f19601f8201168201806040525081019061143b91906133f8565b9050805f8061144983611818565b915091508061145a57505050505050565b846001600160a01b031663a4ece52c6040518163ffffffff1660e01b81526004016020604051808303815f875af1158015611497573d5f803e3d5ffd5b505050506040513d601f19601f820116820180604052508101906114bb91906133f8565b50816fffffffffffffffffffffffffffffffff16600103611528575f8381526007602090815260409182902082516060810184528154808252600190920154600281900b93820193909352630100000090920460ff1615159282019290925290611526908890611831565b505b50505f908152600760205260408120908155600101805463ffffffff1916905550611376565b5050565b5f8030330361156c575063b47b2fb160e01b90505f610aba565b5f6115b26115826104f4368b90038b018b613302565b6001600160a01b037f00000000000000000000000000000000000000000000000000000000000000001690611ac6565b50509150505f60045f6115cf8b8036038101906104f49190613302565b815260208101919091526040015f205460020b90506115ef898284611b78565b8160045f6116056104f4368e90038e018e613302565b815260208101919091526040015f908120805462ffffff191662ffffff939093169290921790915563b47b2fb160e01b9b909a5098505050505050505050565b61164d611da5565b61167a60017f9b779b17422d0df92223018b32b4d1fa46e071723d6817e2486d003becc55f005b90611de5565b565b61167a5f7f9b779b17422d0df92223018b32b4d1fa46e071723d6817e2486d003becc55f00611674565b5f6109db8383611dec565b6040516313fce3b160e11b81525f9073ea30c4b8b44078bbf8a6ef5b9f1ec1626c7848d9906327f9c762906116ec9085903390600401613548565b6020604051808303815f875af1158015611708573d5f803e3d5ffd5b505050506040513d601f19601f82011682018060405250810190610a5691906133f8565b5f81815260018301602052604081205461177157508154600181810184555f848152602080822090930184905584548482528286019093526040902091909155610a56565b505f610a56565b5f8061178c6104f436859003850185613302565b5f818152600660205260409020549091506001600160a01b0316806109db576040516117b790612af5565b604051809103905ff0801580156117d0573d5f803e3d5ffd5b505f83815260066020526040902080547fffffffffffffffffffffffff0000000000000000000000000000000000000000166001600160a01b03831617905590509392505050565b5f805f8061182585611ed6565b90969095509350505050565b611839611645565b5f818152600360205260408120908154600160a81b900460ff16600281111561186457611864612ff2565b146118a45760405162461bcd60e51b815260206004820152601060248201526f4f72646572206e6f742061637469766560801b6044820152606401610707565b60a083206004820154146118ec5760405162461bcd60e51b815260206004820152600f60248201526e496e76616c696420506f6f6c4b657960881b6044820152606401610707565b5f6118fb6115828560a0902090565b5050835460ff60a81b1916600160a81b178085556040805160608101909152600160a01b90910460ff161515815260038501549193505f92506119a59187919060208201906119499061351b565b81528654602090910190600160a01b900460ff1661198557611980600173fffd8963efd1fc6a506488495d951d5263988d266135a0565b611995565b6119956401000276a360016135bf565b6001600160a01b03169052611f54565b8354909150600160a01b900460ff1615611a085760208501515f6119c983600f0b90565b90505f81600f0b1315611a01578454611a01906001600160a01b0384811691166fffffffffffffffffffffffffffffffff8416612095565b5050611a50565b84515f611a158360801d90565b90505f81600f0b1315611a4d578454611a4d906001600160a01b0384811691166fffffffffffffffffffffffffffffffff8416612095565b50505b60048301545f908152600560205260409020611a6c90856116a6565b5060a08520835460408051878152600286900b60208201526001600160a01b03909216917feae7535c8ff086a47c32e8810450018222f036f245bddfdea923e774d5398ef1910160405180910390a350505061154e61167c565b5f805f805f611ad48661213a565b604051631e2eaeaf60e01b8152600481018290529091505f906001600160a01b03891690631e2eaeaf90602401602060405180830381865afa158015611b1c573d5f803e3d5ffd5b505050506040513d601f19601f82011682018060405250810190611b4091906133f8565b90506001600160a01b03811695508060a01c60020b945062ffffff8160b81c16935062ffffff8160d01c169250505092959194509250565b600282810b9082900b135f600581611b986104f436899003890189613302565b81526020019081526020015f2090505f611bb186611778565b90505f5b611bbe83612176565b8110156110a4575f611bd0848361217f565b5f8181526003602052604081209192508154600160a81b900460ff166002811115611bfd57611bfd612ff2565b14611c09575050611d9d565b6040805160e08101825282546001600160a01b038116825260ff600160a01b82048116151560208401525f93611c9e9392869291840191600160a81b909104166002811115611c5a57611c5a612ff2565b6002811115611c6b57611c6b612ff2565b8152602001600182015481526020016002820154815260200160038201548152602001600482015481525050898961218a565b6040805160608101825285815260028b900b60208083019182528b15158385019081525f86815260079092529390209151825551600190910180549251151563010000000263ffffffff1990931662ffffff90921691909117919091179055905080611d0981612284565b604051632566b12160e21b8152600481018390526001600160a01b0387169063959ac484906024015f604051808303815f87803b158015611d48575f80fd5b505af1158015611d5a573d5f803e3d5ffd5b505060408051878152602081018690527f81bca54e6c48c44ec959a5581796be73005cbde51156a29bae607f52e9baa16c935001905060405180910390a1505050505b600101611bb5565b7f9b779b17422d0df92223018b32b4d1fa46e071723d6817e2486d003becc55f005c1561167a57604051633ee5aeb560e01b815260040160405180910390fd5b80825d5050565b5f8181526001830160205260408120548015611ec6575f611e0e600183613535565b85549091505f90611e2190600190613535565b9050808214611e80575f865f018281548110611e3f57611e3f6135de565b905f5260205f200154905080875f018481548110611e5f57611e5f6135de565b5f918252602080832090910192909255918252600188019052604090208390555b8554869080611e9157611e916135f2565b600190038181905f5260205f20015f90559055856001015f8681526020019081526020015f205f905560019350505050610a56565b5f915050610a56565b5092915050565b60405163458693c960e01b8152600481018290525f90819073ea30c4b8b44078bbf8a6ef5b9f1ec1626c7848d99063458693c9906024016040805180830381865afa158015611f27573d5f803e3d5ffd5b505050506040513d601f19601f82011682018060405250810190611f4b9190613606565b91509150915091565b5f807f00000000000000000000000000000000000000000000000000000000000000006001600160a01b031663f3cd914c85856040518363ffffffff1660e01b8152600401611fa4929190613635565b6020604051808303815f875af1158015611fc0573d5f803e3d5ffd5b505050506040513d601f19601f82011682018060405250810190611fe491906133f8565b83519091501561204b575f611ff98260801d90565b600f0b1215612020578351612020906120128360801d90565b61201b906136cb565b6122a6565b5f61202b82600f0b90565b600f0b13156109d4576109d4846020015161204683600f0b90565b6123e9565b5f6120568260801d90565b600f0b131561206f57835161206f906120468360801d90565b5f61207a82600f0b90565b600f0b12156109db576109db846020015161201283600f0b90565b5f6001600160a01b0384166120ca575f805f8085875af19050806120c5576120c5835f633d2cec6f60e21b612481565b612134565b60405163a9059cbb60e01b81526001600160a01b038416600482015282602482015260205f6044835f895af13d15601f3d1160015f511416171691505f81525f60208201525f60408201525080612134576121348463a9059cbb60e01b633c9fd93960e21b612481565b50505050565b6040515f90612159908390600690602001918252602082015260400190565b604051602081830303815290604052805190602001209050919050565b5f610a56825490565b5f6109db83836124f9565b5f806121ab6121a0620d89e8600287900b6136f8565b63ffffffff1661251f565b90505f6121b78461252a565b90505f866080015190505f6121cf886020015161252a565b60608901519091505f6121eb856121e68887612535565b612576565b90505f6122046121fa876125b8565b6121e689886125dc565b90505f61221285848461261d565b90505f61222b612221896125b8565b6121e68b8a6125dc565b90505f61223c896121e68c8b612535565b90505f61224a88848461261d565b90505f61225888868461261d565b90505f61226482612675565b905061226f81611142565b9c505050505050505050505050509392505050565b61228d81612681565b61229d5761229a5f61268a565b90505b61154e81612695565b604051632961046560e21b81526001600160a01b0383811660048301527f0000000000000000000000000000000000000000000000000000000000000000169063a5841194906024015f604051808303815f87803b158015612306575f80fd5b505af1158015612318573d5f803e3d5ffd5b50612363925050506001600160a01b0383167f00000000000000000000000000000000000000000000000000000000000000006fffffffffffffffffffffffffffffffff8416612095565b7f00000000000000000000000000000000000000000000000000000000000000006001600160a01b03166311da60b46040518163ffffffff1660e01b81526004016020604051808303815f875af11580156123c0573d5f803e3d5ffd5b505050506040513d601f19601f820116820180604052508101906123e491906133f8565b505050565b604051630b0d9c0960e01b81526001600160a01b0383811660048301523060248301526fffffffffffffffffffffffffffffffff831660448301527f00000000000000000000000000000000000000000000000000000000000000001690630b0d9c09906064015f604051808303815f87803b158015612467575f80fd5b505af1158015612479573d5f803e3d5ffd5b505050505050565b6040516390bfb86560e01b8082526001600160a01b03851660048301526001600160e01b031984166024830152608060448301526020601f3d018190040260a0810160648401523d608484015290913d5f60a483013e60048260a4018201526001600160e01b031984168260c4018201528160e40181fd5b5f825f01828154811061250e5761250e6135de565b905f5260205f200154905092915050565b5f610a56825f612703565b5f610a56825f612711565b5f61253f83612681565b61254f5761254c5f61251f565b92505b61255882612681565b612568576125655f61251f565b91505b6109db600484846012612729565b5f61258083612681565b6125915761258e600161252a565b92505b61259a82612681565b6125ab576125a8600161252a565b91505b6109db5f8484600a612729565b5f6125c282612681565b6125d2576125cf5f61252a565b91505b610a565f836127c1565b5f6125e683612681565b6125f6576125f35f61251f565b92505b6125ff82612681565b61260f5761260c5f61251f565b91505b6109db600484846013612729565b5f61262784612681565b612637576126345f61252a565b93505b61264083612681565b6126505761264d5f61252a565b92505b61265982612681565b612669576126665f61252a565b91505b610c3e5f858585612859565b5f610a56826006612882565b5f811515610a56565b5f610a56825f6128d4565b604051630828982760e01b8152600481018290523360248201525f9073ea30c4b8b44078bbf8a6ef5b9f1ec1626c7848d9906308289827906044015f604051808303815f87803b1580156126e7575f80fd5b505af11580156126f9573d5f803e3d5ffd5b5093949350505050565b5f80610c3e846004856128de565b5f80831561271d575060015b5f610933825f866128de565b5f73ea30c4b8b44078bbf8a6ef5b9f1ec1626c7848d9631888debd86846127508888612983565b604080515f815260208101918290526001600160e01b031960e087901b16909152612781939291906024810161374f565b6020604051808303815f875af115801561279d573d5f803e3d5ffd5b505050506040513d601f19601f8201168201806040525081019061093391906133f8565b5f73ea30c4b8b44078bbf8a6ef5b9f1ec1626c7848d9631888debd84600c6127e8866129ec565b604080515f815260208101918290526001600160e01b031960e087901b16909152612819939291906024810161374f565b6020604051808303815f875af1158015612835573d5f803e3d5ffd5b505050506040513d601f19601f820116820180604052508101906109db91906133f8565b5f73ea30c4b8b44078bbf8a6ef5b9f1ec1626c7848d9631888debd866004612750888888612a35565b5f73ea30c4b8b44078bbf8a6ef5b9f1ec1626c7848d9631888debd8360026128a9876129ec565b6128b58760ff166129ec565b6040518563ffffffff1660e01b8152600401612819949392919061374f565b5f80610c3e846006855b604080515f8082526020820190925273ea30c4b8b44078bbf8a6ef5b9f1ec1626c7848d990631888debd908590601a90612924898960ff1661291f8a612ac0565b612a35565b6040518563ffffffff1660e01b8152600401612943949392919061374f565b6020604051808303815f875af115801561295f573d5f803e3d5ffd5b505050506040513d601f19601f82011682018060405250810190610c3e91906133f8565b60408051600280825260608083018452925f92919060208301908036833701905050905083815f815181106129ba576129ba6135de565b60200260200101818152505082816001815181106129da576129da6135de565b60209081029190910101529392505050565b6040805160018082528183019092526060915f91906020808301908036833701905050905082815f81518110612a2457612a246135de565b602090810291909101015292915050565b604080516003808252608082019092526060915f919060208201848036833701905050905084815f81518110612a6d57612a6d6135de565b6020026020010181815250508381600181518110612a8d57612a8d6135de565b6020026020010181815250508281600281518110612aad57612aad6135de565b6020908102919091010152949350505050565b5f808260030b1215612aeb576040516311ead17f60e31b8152600383900b6004820152602401610707565b5063ffffffff1690565b6102a88061379383390190565b5f60a08284031215612b12575f80fd5b50919050565b8015158114610be6575f80fd5b634e487b7160e01b5f52604160045260245ffd5b6040516080810167ffffffffffffffff81118282101715612b5c57612b5c612b25565b60405290565b604051601f8201601f1916810167ffffffffffffffff81118282101715612b8b57612b8b612b25565b604052919050565b803560ff81168114612ba3575f80fd5b919050565b5f67ffffffffffffffff821115612bc157612bc1612b25565b50601f01601f191660200190565b5f60808284031215612bdf575f80fd5b612be7612b39565b823581529050612bf960208301612b93565b6020820152612c0a60408301612b93565b6040820152606082013567ffffffffffffffff811115612c28575f80fd5b8201601f81018413612c38575f80fd5b8035612c4b612c4682612ba8565b612b62565b818152856020838501011115612c5f575f80fd5b816020840160208301375f6020838301015280606085015250505092915050565b5f805f805f6101208688031215612c95575f80fd5b612c9f8787612b02565b945060a0860135612caf81612b18565b935060c086013567ffffffffffffffff811115612cca575f80fd5b612cd688828901612bcf565b93505060e086013567ffffffffffffffff811115612cf2575f80fd5b612cfe88828901612bcf565b9598949750929561010001359392505050565b6001600160a01b0381168114610be6575f80fd5b5f60808284031215612b12575f80fd5b5f8083601f840112612d45575f80fd5b50813567ffffffffffffffff811115612d5c575f80fd5b602083019150836020828501011115612d73575f80fd5b9250929050565b5f805f805f6101608688031215612d8f575f80fd5b8535612d9a81612d11565b9450612da98760208801612b02565b9350612db88760c08801612d25565b925061014086013567ffffffffffffffff811115612dd4575f80fd5b612de088828901612d35565b969995985093965092949392505050565b5f60608284031215612b12575f80fd5b5f805f805f6101408688031215612e16575f80fd5b8535612e2181612d11565b9450612e308760208801612b02565b9350612e3f8760c08801612df1565b925061012086013567ffffffffffffffff811115612dd4575f80fd5b5f805f805f805f6101a0888a031215612e72575f80fd5b8735612e7d81612d11565b9650612e8c8960208a01612b02565b9550612e9b8960c08a01612d25565b94506101408801359350610160880135925061018088013567ffffffffffffffff811115612ec7575f80fd5b612ed38a828b01612d35565b989b979a50959850939692959293505050565b8035600281900b8114612ba3575f80fd5b5f805f806101008587031215612f0b575f80fd5b8435612f1681612d11565b9350612f258660208701612b02565b925060c0850135612f3581612d11565b9150612f4360e08601612ee6565b905092959194509250565b5f60a08284031215612f5e575f80fd5b6109db8383612b02565b5f8060208385031215612f79575f80fd5b823567ffffffffffffffff811115612f8f575f80fd5b61182585828601612d35565b5f81518084528060208401602086015e5f602082860101526020601f19601f83011685010191505092915050565b602081525f6109db6020830184612f9b565b5f60208284031215612feb575f80fd5b5035919050565b634e487b7160e01b5f52602160045260245ffd5b6001600160a01b0388168152861515602082015260e081016003871061302e5761302e612ff2565b60408201969096526060810194909452608084019290925260a083015260c09091015292915050565b5f805f805f80610160878903121561306d575f80fd5b863561307881612d11565b95506130878860208901612b02565b94506130968860c08901612df1565b9350610120870135925061014087013567ffffffffffffffff8111156130ba575f80fd5b6130c689828a01612d35565b979a9699509497509295939492505050565b5f805f805f8061012087890312156130ee575f80fd5b86356130f981612d11565b95506131088860208901612b02565b945060c0870135935060e0870135925061010087013567ffffffffffffffff8111156130ba575f80fd5b8151151581526101c081016020830151613150602084018215159052565b506040830151613164604084018215159052565b506060830151613178606084018215159052565b50608083015161318c608084018215159052565b5060a08301516131a060a084018215159052565b5060c08301516131b460c084018215159052565b5060e08301516131c860e084018215159052565b506101008301516131de61010084018215159052565b506101208301516131f461012084018215159052565b5061014083015161320a61014084018215159052565b5061016083015161322061016084018215159052565b5061018083015161323661018084018215159052565b506101a0830151611ecf6101a084018215159052565b5f805f60e0848603121561325e575f80fd5b833561326981612d11565b92506132788560208601612b02565b915060c084013561328881612d11565b809150509250925092565b5f805f8061010085870312156132a7575f80fd5b6132b18686612b02565b935060a0850135925060c085013567ffffffffffffffff8111156132d3575f80fd5b6132df87828801612bcf565b9497939650939460e0013593505050565b803562ffffff81168114612ba3575f80fd5b5f60a0828403128015613313575f80fd5b5060405160a0810167ffffffffffffffff8111828210171561333757613337612b25565b604052823561334581612d11565b8152602083013561335581612d11565b6020820152613366604084016132f0565b604082015261337760608401612ee6565b6060820152608083013561338a81612d11565b60808201529392505050565b5f602082840312156133a6575f80fd5b81356109db81612d11565b5f602082840312156133c1575f80fd5b81516109db81612b18565b634e487b7160e01b5f52601160045260245ffd5b5f600182016133f1576133f16133cc565b5060010190565b5f60208284031215613408575f80fd5b5051919050565b60a08101823561341e81612d11565b6001600160a01b03168252602083013561343781612d11565b6001600160a01b0316602083015262ffffff613455604085016132f0565b16604083015261346760608401612ee6565b60020b6060830152608083013561347d81612d11565b6001600160a01b03811660808401525092915050565b5f602082840312156134a3575f80fd5b815167ffffffffffffffff8111156134b9575f80fd5b8201601f810184136134c9575f80fd5b80516134d7612c4682612ba8565b8181528560208385010111156134eb575f80fd5b8160208401602083015e5f91810160200191909152949350505050565b80820180821115610a5657610a566133cc565b5f600160ff1b820161352f5761352f6133cc565b505f0390565b81810381811115610a5657610a566133cc565b604081528251604082015260ff602084015116606082015260ff60408401511660808201525f6060840151608060a084015261358760c0840182612f9b565b9150506001600160a01b03831660208301529392505050565b6001600160a01b038281168282160390811115610a5657610a566133cc565b6001600160a01b038181168382160190811115610a5657610a566133cc565b634e487b7160e01b5f52603260045260245ffd5b634e487b7160e01b5f52603160045260245ffd5b5f8060408385031215613617575f80fd5b8251602084015190925061362a81612b18565b809150509250929050565b6001600160a01b0383511681526001600160a01b03602084015116602082015262ffffff6040840151166040820152606083015160020b60608201526001600160a01b0360808401511660808201526136b060a0820183805115158252602080820151908301526040908101516001600160a01b0316910152565b6101206101008201525f610c3e61012083015f815260200190565b5f81600f0b6f7fffffffffffffffffffffffffffffff1981036136f0576136f06133cc565b5f0392915050565b600381810b9083900b01637fffffff8113637fffffff1982121715610a5657610a566133cc565b5f8151808452602084019350602083015f5b828110156126f9578151865260209586019590910190600101613731565b60ff851681525f6020851061376657613766612ff2565b84602083015260806040830152613780608083018561371f565b8281036060840152610b1d818561371f56fe6080604052348015600e575f80fd5b5061028c8061001c5f395ff3fe608060405234801561000f575f80fd5b5060043610610064575f3560e01c8063681fe70c1161004d578063681fe70c146100a0578063959ac484146100c7578063a4ece52c146100dc575f80fd5b80631f7b6d321461006857806359e02dd714610098575b5f80fd5b5f546001600160801b03808216600160801b909204811691909103165b6040519081526020015b60405180910390f35b6100856100e9565b5f546001600160801b03808216600160801b9092041614604051901515815260200161008f565b6100da6100d536600461023f565b6100f9565b005b610085610106565b905090565b5f6100e46100f65f610113565b90565b6101035f82610160565b50565b5f6100e46100f65f6101c1565b5f6101318254600160801b81046001600160801b0390811691161490565b1561014057610140603261022e565b5080546001600160801b03165f9081526001909101602052604090205490565b81546001600160801b03600160801b82048116918116600183019091160361018c5761018c604161022e565b6001600160801b038082165f90815260018086016020526040909120939093558354919092018216600160801b029116179055565b80545f906001600160801b0380821691600160801b90041681036101e9576101e9603161022e565b6001600160801b038181165f908152600185810160205260408220805492905585546fffffffffffffffffffffffffffffffff19169301909116919091179092555090565b634e487b715f52806020526024601cfd5b5f6020828403121561024f575f80fd5b503591905056fea2646970667358221220ea045e64865eea00c753fb52274ec4bd3803f6f7d3dde3b6921cfd7d68504b6164736f6c634300081a0033a2646970667358221220eb3848888805f89c1b9ff1cce31353b87d91754deb1504769886d82617d59baf64736f6c634300081a0033",
    "linkReferences": {}
  },
  "methodIdentifiers": {
    "afterAddLiquidity(address,(address,address,uint24,int24,address),(int24,int24,int256,bytes32),int256,int256,bytes)": "9f063efc",
    "afterDonate(address,(address,address,uint24,int24,address),uint256,uint256,bytes)": "e1b4af69",
    "afterInitialize(address,(address,address,uint24,int24,address),uint160,int24)": "6fe7e6eb",
    "afterRemoveLiquidity(address,(address,address,uint24,int24,address),(int24,int24,int256,bytes32),int256,int256,bytes)": "6c2bbe7e",
    "afterSwap(address,(address,address,uint24,int24,address),(bool,int256,uint160),int256,bytes)": "b47b2fb1",
    "beforeAddLiquidity(address,(address,address,uint24,int24,address),(int24,int24,int256,bytes32),bytes)": "259982e5",
    "beforeDonate(address,(address,address,uint24,int24,address),uint256,uint256,bytes)": "b6a8b0fa",
    "beforeInitialize(address,(address,address,uint24,int24,address),uint160)": "dc98354e",
    "beforeRemoveLiquidity(address,(address,address,uint24,int24,address),(int24,int24,int256,bytes32),bytes)": "21d0ee70",
    "beforeSwap(address,(address,address,uint24,int24,address),(bool,int256,uint160),bytes)": "575e24b4",
    "editOrder((address,address,uint24,int24,address),uint256,(uint256,uint8,uint8,bytes),int256)": "f465bcae",
    "flushOrder((address,address,uint24,int24,address))": "ccab9d8a",
    "getHookPermissions()": "c4e833ce",
    "getQueueLength((address,address,uint24,int24,address))": "74ecdb9f",
    "lastTicks(bytes32)": "e4cbfea5",
    "nextOrderId()": "2a58b330",
    "orders(uint256)": "a85c38ef",
    "placeOrder((address,address,uint24,int24,address),bool,(uint256,uint8,uint8,bytes),(uint256,uint8,uint8,bytes),uint256)": "042c3a8e",
    "poolManager()": "dc4c90d3",
    "unlockCallback(bytes)": "91dd7346"
  },
  "id": 134
}